:100000000C9463000C948B000C948B000C94650D85
:100010000C94650D0C94650D0C948B000C948B0066
:100020000C948B000C948B000C948B000C948B0024
:100030000C948B000C948B000C948B000C948B0014
:100040000C941B0D0C948B000C948B000C948B0067
:100050000C948B000C948B000C948B000C948B00F4
:100060000C948B000C948B000000000024002700EF
:100070002A0000000008000201000003040700003D
:1000800000000000000000000000230026002900FE
:1000900000000000250028002B00040404040404D0
:1000A0000404020202020202030303030303010227
:1000B00004081020408001020408102001020408F6
:1000C0001020220EEB1311241FBECFEFD8E0DEBFAD
:1000D000CDBF25E0A0EBB1E001C01D92A23AB2076E
:1000E000E1F711E0A0E0B1E0EAE5FEE202C0059030
:1000F0000D92A03BB107D9F710E0C2E6D0E004C0F2
:100100002197FE010E941A15C136D107C9F70E9436
:10011000AE0E0C9420170C940000CF92DF92EF9259
:1001200030E020E0FA01C080D180E280FC01C19281
:10013000D192E192CF012F5F3F4F6217730791F782
:10014000EF90DF90CF90089580E991E00895FC0151
:10015000248135816217730720F480819181009793
:1001600029F41092FD018DEF91E00895860F971FFD
:1001700008958F929F92AF92BF92CF92DF92EF92AB
:10018000FF920F931F93CF93DF93CDB7DEB7A8975E
:100190000FB6F894DEBF0FBECDBF5C01062F809175
:1001A000740590917505DC01ED91FC910084F18559
:1001B000E02D0995892BB9F4FE0131966F0110E00D
:1001C000F12CE12C4F010E151F05C9F0B701C50137
:1001D0000E94A700FC018081D6018D936D01BFEFC5
:1001E000EB1AFB0AF0CF8091740590917505DC0144
:1001F000ED91FC910284F385E02D0995D0CF80919B
:10020000740590917505DC01ED91FC910280F381FC
:10021000E02DA801B4010995A8960FB6F894DEBFA9
:100220000FBECDBFDF91CF911F910F91FF90EF9047
:10023000DF90CF90BF90AF909F908F900895CF9216
:10024000DF92EF92FF920F931F93CF93DF938C0176
:10025000F12CCF2DD0E0F80184819581C817D90702
:10026000E8F0D0E0C0E0D12CC12C8AE0E82ECF1518
:1002700048F5BE01C8010E94A700EC9C9001ED9CCE
:10028000300D1124690140E3C41AD108FC018081BA
:10029000C80ED11C87FDDA942196E9CFBE01C801B2
:1002A0000E94A700FC0180818D30D9F2BE016F5FF2
:1002B0007F4FC8010E94A700FC0180818A3089F22B
:1002C000F394C7CF8C2DDF91CF911F910F91FF90A9
:1002D000EF90DF90CF9008950895AF92BF92CF92A4
:1002E000DF92EF92FF920F931F93CF93DF936C01F6
:1002F0007B018B01040F151FEB015E01AE18BF08D7
:10030000C017D10759F06991D601ED91FC91019088
:10031000F081E02DC6010995892B79F7C501DF91A0
:10032000CF911F910F91FF90EF90DF90CF90BF90F2
:10033000AF90089590E0FC01EE58FF4F2491FC012E
:10034000E255FF4F3491FC01E656FF4FE491EE2356
:10035000C9F0222339F0233001F1A8F4213019F13A
:10036000223029F1F0E0EE0FFF1FE057FF4FA5917B
:10037000B4918FB7F894EC91611126C030953E236B
:100380003C938FBF08952730A9F02830C9F024305E
:1003900049F7809180008F7D03C0809180008F7726
:1003A00080938000DFCF84B58F7784BDDBCF84B5A9
:1003B0008F7DFBCF8091B0008F778093B000D2CF3C
:1003C0008091B0008F7DF9CF3E2BDACFCF93DF93B2
:1003D00090E0FC01E255FF4F249186569F4FFC01AF
:1003E00084918823D1F090E0880F991FFC01E8598F
:1003F000FF4FA591B491FC01E057FF4FC591D491F7
:1004000061110EC09FB7F8948C91E22FE0958E2376
:100410008C932881E223E8839FBFDF91CF910895D9
:100420008FB7F894EC91E22BEC938FBFF6CF3FB7E8
:10043000F8948091F9019091FA01A091FB01B0919B
:10044000FC0126B5A89B05C02F3F19F00196A11D00
:10045000B11D3FBFBA2FA92F982F8827BC01CD010E
:10046000620F711D811D911D42E0660F771F881F6D
:10047000991F4A95D1F708958F929F92AF92BF929C
:10048000CF92DF92EF92FF924B015C010E94170224
:100490006B017C010E9417026C197D098E099F096E
:1004A000683E734081059105A8F321E0821A910806
:1004B000A108B10888EEC80E83E0D81EE11CF11C2B
:1004C00081149104A104B10429F7FF90EF90DF900B
:1004D000CF90BF90AF909F908F9008952FB7F894D2
:1004E0006091F5017091F6018091F7019091F8010A
:1004F0002FBF08954F925F926F927F929F92AF921B
:10050000BF92CF92DF92EF92FF920F931F93CF9300
:10051000DF9300D01F92CDB7DEB7D09067058091F2
:100520006A0590916B05A0916C05B0916D05892BC2
:100530008A2B8B2BD9F00E94170200916305109132
:1005400064052091650530916605601B710B820B77
:10055000930B00916A0510916B0520916C05309109
:100560006D056017710782079307C8F20E94170292
:1005700060936305709364058093650590936605A9
:10058000E0917205F0917305309759F040916E0536
:1005900050916F0560917005709171058D2D0995D1
:1005A000D82EE0906105F09062054D2C512C712CF5
:1005B000612CE114F10409F459C0D7011C96CC90C8
:1005C0001C9780916805909169058436910510F417
:1005D0001C961C92D701ED91FC91A280B3801982E8
:1005E0001A821B82DD2079F1F701369610E000E0D7
:1005F0002191222319F19280992001F130E050E0FD
:1006000040E02F5F3F4F4F4F5F4FC301B2010E9449
:1006100091149B01AC01892D90E0B0E0A0E0BC01F9
:10062000CD016F5F7F4F8F4F9F4F0E949114A1E0CC
:10063000B0E0AC0FBD1FA00FB11F8C930F5F1F4F19
:1006400003301105A9F609811A812B81F70145852F
:10065000568562817381C701F5010995D7011C9602
:10066000CC921C971496ED90FC90A3CF80915F05DF
:10067000909160058C010F5F1F4F109360050093F0
:100680005F054997B4F10E946E02C0905B05D0905F
:100690005C05E0905D05F0905E059B01AC012C19B6
:1006A0003D094E095F0921F421E030E040E050E0CF
:1006B00088EE93E0089FB001099F700D189F700DA0
:1006C0001124072E000C880B990B0E94B51430934F
:1006D0006905209368051092600510925F050E94DD
:1006E0006E0260935B0570935C0580935D0590934B
:1006F0005E050F900F900F90DF91CF911F910F919A
:10070000FF90EF90DF90CF90BF90AF909F907F9041
:100710006F905F904F9008952091000230910102F8
:100720002817390771F49091FE018091FF01981705
:1007300041F0E091FE01F0E0EC54FE4F808190E04A
:1007400008958FEF9FEF08950895EF92FF920F9312
:100750001F93CF93DF93DC015C96ED90FC905D9747
:10076000E114F10479F481E090E013969C938E9368
:10077000129790E080E0DF91CF911F910F91FF9051
:10078000EF9008955196ED91FC91529750968C916F
:100790005097982F90950FB75E962C915E97122FD9
:1007A000127021FD6095F8942081112319F1282BF6
:1007B0002083E7012197F1F728E0462F50E03081B0
:1007C00060FF1AC0382B3083E7012197F1F7BA0197
:1007D00075956795215089F7112381F080818923D0
:1007E00080830FBF5C968D919C910197F1F781E01A
:1007F00090E0C1CF2923DCCF3923E5CF9081892B2D
:10080000EFCF20910002309101022817390771F4CF
:100810008091FF012091FE0190E0805C9F4F821B40
:10082000910960E470E00E94A114089590E080E0D6
:100830000895209100023091010228173907B9F478
:100840009091FE018091FF01981789F0E091FE01DF
:10085000F0E0EC54FE4F80812091FE0130E02F5FEC
:100860003F4F2F7333272093FE0190E008958FEFC1
:100870009FEF089590E080E008950F931F93CF932A
:10088000DF932091B3012F5F322F37703093B30184
:1008900020FF2BC020E831FD2064347009F0206275
:1008A000205FFC01EC01239600E011E064856623E3
:1008B00029F070E0C8010E94A1146F5F6187322F98
:1008C000369F030E30E0311D1124311110C0168205
:1008D000662311F0615061873196EC17FD0731F7FF
:1008E000DF91CF911F910F91089520E0D4CF315027
:1008F0003683EECF4F925F926F927F928F92AF923C
:10090000BF92CF92DF92EF920F931F93CF93DF931B
:100910003C01EB010E941702F30127853089621B1D
:10092000730B6A307105B0F3F894E881F9817BB1FB
:1009300070626BB16F7D6BB9CA848F812C2D281BBF
:10094000822F2F83BF844A805B801D850C85DE84C7
:100950001F5F0F5FD3949E813885A984EB8441810A
:10096000D20120E0C32F522F322F318144278894A7
:100970003111380F08F43FEF8195889410FD430F33
:100980004795889411FD430F4795889412FD430FB6
:100990004795889413FD430F4795889414FD430FA2
:1009A0004795889415FD430F4795889416FD430F8E
:1009B0004795889417FD430F47958894232F11116D
:1009C000242F8C0D422F002C7BB900C047FF6BB940
:1009D00030812227889400C000C0002C6BB93111EF
:1009E000390F00C0002C7BB900C046FF6BB908F47A
:1009F0003FEF9195889400C000C0002C6BB900FDBA
:100A0000230F00C0002C7BB900C045FF6BB92795B0
:100A1000889401FD230F00C000C0002C6BB92795FE
:100A2000889400C0002C7BB900C044FF6BB902FD64
:100A3000230F2795889400C000C0002C6BB903FDDC
:100A4000230F00C0002C7BB900C043FF6BB9279572
:100A5000889404FD230F00C000C0002C6BB92795BB
:100A6000889400C0002C7BB900C042FF6BB905FD23
:100A7000230F2795889400C000C0002C6BB906FD99
:100A8000230F00C0002C7BB900C041FF6BB9279534
:100A9000889407FD230F00C000C0002C6BB9279578
:100AA000889400C0002C7BB900C040FF6BB9432F75
:100AB0000111422F9A0D00C000C0002C6BB900C07C
:100AC00000C0002C7BB900C047FF6BB932812227E0
:100AD000889400C000C0002C6BB931113C0F00C0DD
:100AE000002C7BB900C046FF6BB908F43FEFEB0D5B
:100AF000F11D00C000C0002C6BB9D0FC230F00C05A
:100B0000002C7BB900C045FF6BB927958894D1FCB8
:100B1000230F00C000C0002C6BB92795889400C03B
:100B2000002C7BB900C044FF6BB9D2FC230F279582
:100B3000889400C000C0002C6BB9D3FC230F00C008
:100B4000002C7BB900C043FF6BB927958894D4FC77
:100B5000230F00C000C0002C6BB92795889400C0FB
:100B6000002C7BB900C042FF6BB9D5FC230F279541
:100B7000889400C000C0002C6BB9D6FC230F00C0C5
:100B8000002C7BB900C041FF6BB927958894D7FC36
:100B9000230F00C000C0002C6BB92795889400C0BB
:100BA000002C7BB900C040FF6BB9432FD110422FFE
:100BB000C19500C000C0002C6BB9CE0D00C000C0B4
:100BC0007BB900C047FF6BB931812227889400C0F0
:100BD00000C0002C6BB93111380F00C0002C7BB95C
:100BE00000C046FF6BB908F43FEF8195889400C0C0
:100BF00000C0002C6BB910FD230F00C0002C7BB986
:100C000000C045FF6BB92795889411FD230F00C0E4
:100C100000C0002C6BB92795889400C0002C7BB9CC
:100C200000C044FF6BB912FD230F2795889400C0C4
:100C300000C0002C6BB913FD230F00C0002C7BB942
:100C400000C043FF6BB92795889414FD230F00C0A3
:100C500000C0002C6BB92795889400C0002C7BB98C
:100C600000C042FF6BB915FD230F2795889400C083
:100C700000C0002C6BB916FD230F00C0002C7BB9FF
:100C800000C041FF6BB92795889417FD230F00C062
:100C900000C0002C6BB92795889400C0002C7BB94C
:100CA00000C040FF6BB9432F1111422F8C0D00C0C3
:100CB00000C0002C6BB9119709F086CE20EE31E010
:100CC000D2010E94F614DC01CB01F4E0B695A795A1
:100CD00097958795FA95D1F730E020E0B901EAE9D8
:100CE0004E9E040C611D5E9E600D711D1124650DEC
:100CF000711D860F971FA11DB11D893E43E094070A
:100D0000A105B10508F434C0885E9340A109B1097A
:100D100042E0B695A795979587954A95D1F747E014
:100D2000849F080E211D949F200D311D1124290F31
:100D3000311D6091B20170E0860F971F820F931FE3
:100D40004091F5015091F6016091F7017091F80121
:100D5000292F3327420F531F611D711D4093F50149
:100D60005093F6016093F7017093F8018093B201FC
:100D700078940E941702F301708B6787DF91CF91FF
:100D80001F910F91EF90DF90CF90BF90AF908F9019
:100D90007F906F905F904F900895559A08954F926D
:100DA0005F926F927F928F92AF92BF92CF92DF92BB
:100DB000EF920F931F93CF93DF933C01EB010E94BF
:100DC0001702F30127853089621B730B6A307105A6
:100DD000B0F3F894E881F98175B1716065B16E7F07
:100DE00065B9CA848F812C2D281B822F2F83BF8445
:100DF0004A805B801D850C85DE841F5F0F5FD39466
:100E00009E813885A984EB844181D20120E0C32FE3
:100E1000522F322F3181442788943111380F08F432
:100E20003FEF8195889410FD430F4795889411FDFD
:100E3000430F4795889412FD430F4795889413FDFF
:100E4000430F4795889414FD430F4795889415FDEB
:100E5000430F4795889416FD430F4795889417FDD7
:100E6000430F47958894232F1111242F8C0D422F67
:100E7000002C75B900C047FF65B9308122278894DE
:100E800000C000C0002C65B93111390F00C0002C22
:100E900075B900C046FF65B908F43FEF9195889495
:100EA00000C000C0002C65B900FD230F00C0002C5D
:100EB00075B900C045FF65B92795889401FD230FDA
:100EC00000C000C0002C65B92795889400C0002C94
:100ED00075B900C044FF65B902FD230F27958894BA
:100EE00000C000C0002C65B903FD230F00C0002C1A
:100EF00075B900C043FF65B92795889404FD230F99
:100F000000C000C0002C65B92795889400C0002C53
:100F100075B900C042FF65B905FD230F2795889478
:100F200000C000C0002C65B906FD230F00C0002CD6
:100F300075B900C041FF65B92795889407FD230F57
:100F400000C000C0002C65B92795889400C0002C13
:100F500075B900C040FF65B9432F0111422F9A0DAA
:100F600000C000C0002C65B900C000C0002C75B9DD
:100F700000C047FF65B932812227889400C000C0B5
:100F8000002C65B931113C0F00C0002C75B900C0B0
:100F900046FF65B908F43FEFEB0DF11D00C000C03E
:100FA000002C65B9D0FC230F00C0002C75B900C01F
:100FB00045FF65B927958894D1FC230F00C000C078
:100FC000002C65B92795889400C0002C75B900C025
:100FD00044FF65B9D2FC230F2795889400C000C058
:100FE000002C65B9D3FC230F00C0002C75B900C0DC
:100FF00043FF65B927958894D4FC230F00C000C037
:10100000002C65B92795889400C0002C75B900C0E4
:1010100042FF65B9D5FC230F2795889400C000C016
:10102000002C65B9D6FC230F00C0002C75B900C098
:1010300041FF65B927958894D7FC230F00C000C0F5
:10104000002C65B92795889400C0002C75B900C0A4
:1010500040FF65B9432FD110422FC19500C000C099
:10106000002C65B9CE0D00C000C075B900C047FFA7
:1010700065B931812227889400C000C0002C65B971
:101080003111380F00C0002C75B900C046FF65B99A
:1010900008F43FEF8195889400C000C0002C65B92A
:1010A00010FD230F00C0002C75B900C045FF65B9C5
:1010B0002795889411FD230F00C000C0002C65B94E
:1010C0002795889400C0002C75B900C044FF65B90D
:1010D00012FD230F2795889400C000C0002C65B92D
:1010E00013FD230F00C0002C75B900C043FF65B984
:1010F0002795889414FD230F00C000C0002C65B90B
:101100002795889400C0002C75B900C042FF65B9CE
:1011100015FD230F2795889400C000C0002C65B9E9
:1011200016FD230F00C0002C75B900C041FF65B942
:101130002795889417FD230F00C000C0002C65B9C7
:101140002795889400C0002C75B900C040FF65B990
:10115000432F1111422F8C0D00C000C0002C65B927
:10116000119709F086CE20EE31E0D2010E94F614EC
:10117000DC01CB01F4E0B695A79597958795FA9594
:10118000D1F730E020E0B901EAE94E9E040C611D80
:101190005E9E600D711D1124650D711D860F971FD8
:1011A000A11DB11D893E43E09407A105B10508F4D6
:1011B00034C0885E9340A109B10942E0B695A79575
:1011C000979587954A95D1F747E0849F080E211D92
:1011D000949F200D311D1124290F311D6091B20102
:1011E00070E0860F971F820F931F4091F501509179
:1011F000F6016091F7017091F801292F3327420F12
:10120000531F611D711D4093F5015093F6016093CA
:10121000F7017093F8018093B20178940E9417024D
:10122000F301708B6787DF91CF911F910F91EF9042
:10123000DF90CF90BF90AF908F907F906F905F9036
:101240004F900895209A0895EF92FF920F931F9365
:10125000CF93DF93CDB7DEB762970FB6F894DEBFBA
:101260000FBECDBF7C01DC011C968C917A83698313
:101270005C834B835E834D830D871E872F87813070
:1012800001F5CE0101960E943D0483E0888B1A8A05
:10129000198AD701ED91FC910484F585E02DBE01FA
:1012A0006F5F7F4FC701099562960FB6F894DEBF56
:1012B0000FBECDBFDF91CF911F910F91FF90EF90A7
:1012C00008951C861B861A86198618861F82DDCF14
:1012D000EF92FF920F931F93CF93DF93CDB7DEB7BB
:1012E00062970FB6F894DEBF0FBECDBF7C01DC0164
:1012F0001C968C917A8369835C834B835E834D83D8
:101300000D871E872F878130F9F4CE0101960E9448
:101310003D04188A1A8A198AD701ED91FC91048438
:10132000F585E02DBE016F5F7F4FC701099562967D
:101330000FB6F894DEBF0FBECDBFDF91CF911F91E6
:101340000F91FF90EF9008951C861B861A861986D0
:1013500018861F82DECF90E080E00895FC0185852D
:10136000968508950F931F93CF93DF9300D01F921C
:10137000CDB7DEB7AB0119821A821B82DC01ED9179
:10138000FC910190F081E02D00E010E020E0BE0132
:101390006F5F7F4F09950F900F900F90DF91CF9166
:1013A0001F910F910895FC018AE091E09183808361
:1013B000138212828FEF868387838087818782875B
:1013C000838781E084871686158615821482809132
:1013D000610590916205892B21F4F0936205E093F9
:1013E0006105A091B001B091B101109721F015965F
:1013F000FC93EE931497F093B101E093B00108953C
:101400000F931F93E5EBF0E06491E1EAF0E0E491E3
:10141000F0E0EE0FFF1FEA57FF4F8591949100E433
:1014200012E42FE030E0462F0E94DD0D61157105BA
:101430008105910529F06F5F7F4F8F4F9F4F9F7000
:101440001F910F9108950E940217FC01248135819C
:10145000232B39F421E0FB018081882349F020E02F
:1014600007C0808191810E94101721E0892BB9F774
:10147000822F08950F931F93CF93DF938C01EB017D
:10148000FC01808191810097E1F06881798161158B
:101490007105A9F0428153812C813D814217530788
:1014A00070F00E9419178C819D81F80195838483C7
:1014B0001D821C82DF91CF911F910F9108950E9490
:1014C000BC1588819981F801918380838A819B81F1
:1014D000938382838C819D81958384831982188272
:1014E0001B821A82E5CFFC0180819181009711F067
:1014F0000C94BC1508950F931F93CF93DF93EC01C9
:1015000088819981009759F02A813B8126173707F6
:1015100030F081E0DF91CF911F910F9108958B0101
:101520006F5F7F4F0E944516009759F0998388831B
:101530001B830A832C813D81232B59F7FC011082E8
:10154000E8CF80E0E7CFEF92FF920F931F93CF9306
:10155000DF936115710541F480E0DF91CF911F9118
:101560000F91FF90EF90089541155105B1F07B0167
:10157000EC010C811D81040F151FB8010E947B0A2C
:10158000882351F3288139818C819D81B701820F95
:10159000931F0E9419171D830C8381E0DECFFC018D
:1015A00001900020E9F73197AF01481B590BBC01AE
:1015B00088E795E00C94A30AEF92FF920F931F9394
:1015C000CF93DF93EC017B018A01BA010E947B0A71
:1015D00028813981811114C02115310519F0C90103
:1015E0000E94BC15198218821D821C821B821A82DD
:1015F000CE01DF91CF911F910F91FF90EF90089551
:101600001D830C83B701C9010E941917F1CFFB019B
:1016100001900020E9F73197AF01461B570B0C945E
:10162000DC0A0F931F93CF93DF93CDB7DEB762979A
:101630000FB6F894DEBF0FBECDBF8C01CB01F80111
:101640001182108213821282158214824AE0BE0136
:101650006F5F7F4F0E940B14BE016F5F7F4FC80109
:101660000E94070B62960FB6F894DEBF0FBECDBF87
:10167000DF91CF911F910F910895CF93DF93EC01EC
:10168000FB018617970749F060817181611571052B
:1016900041F0448155810E94DC0ACE01DF91CF9157
:1016A000089588819981009711F00E94BC151982D4
:1016B00018821D821C821B821A82EFCFFC011182CC
:1016C000108213821282158214820C943D0BFC014D
:1016D000118210821382128215821482FB01019002
:1016E0000020E9F73197AF01461B570B0C94DC0A39
:1016F0002F923F924F925F926F927F928F929F9222
:10170000AF92BF92CF92DF92EF92FF920F931F930F
:10171000CF93DF93CDB7DEB762970FB6F894DEBFF5
:101720000FBECDBF4C01F62E68E671E08E010F5F53
:101730001F4F6801C8010E94670B2F2D30E03A8BC4
:10174000298B0E946E027B018C0120E030E0A90110
:101750006987FA868B871C872D873E874F87588B32
:1017600029883A88712C612C26018091740590910A
:101770007505DC01ED91FC910084F185E02D099562
:10178000892BD9F08091740590917505DC01ED915C
:10179000FC910284F385E02D09958F83188641E042
:1017A00050E0BE01695F7F4FC2010E94A30AB1E011
:1017B0002B1A3108EFEF6E1A7E0AB30161507109DE
:1017C000C2010E94A700DC018C918A3009F459C043
:1017D0000E946E029B01AC0160E070E080E090E04E
:1017E000A984BA84CB84DC84ED84FE840F851889B7
:1017F0000E94FD14283E33404105510561057105E5
:101800008105910521F11CF16CE471E0C4010E9495
:10181000670BCE0101960E94730AC40162960FB64F
:10182000F894DEBF0FBECDBFDF91CF911F910F9116
:10183000FF90EF90DF90CF90BF90AF909F908F90F0
:101840007F906F905F904F903F902F90089521145C
:10185000310409F08ACF69897A89CE0101960E9404
:10186000A700DC011C92F401118210821382128203
:1018700015821482BE016F5F7F4FC4010E943A0A35
:10188000C8CFB30162507109C2010E94A700FC01D8
:1018900080818D3009F09CCFDECF68E671E00C943A
:1018A000670BEF92FF920F931F93CF93DF93EC019F
:1018B0007B018A010E944D0C68E671E088E795E0A3
:1018C0000E94070B82E591E00E94CF0A65E571E076
:1018D000C7010E94250A81110DC087E591E00E9491
:1018E000CF0AF701448155816081718188E795E0D5
:1018F0000E94A30A65E571E0C8010E94250A8111D2
:101900000DC089E591E00E94CF0AF801448155811C
:101910006081718188E795E00E94A30A86E691E0E4
:101920000E94CF0A68E775E0CE010E943D0B8091CE
:101930007C058E83CE01DF91CF911F910F91FF9097
:10194000EF9008950F931F93CF93DF93CDB7DEB73A
:101950006A970FB6F894DEBF0FBECDBF2091760513
:101960003091770510E02130310509F058C08C0125
:10197000CE0108960E944D0CB801CE010F960E9430
:101980005E0B6BE571E0CE0145960E94670BAE01E0
:10199000415F5F4FBE016B5E7F4FCE0101960E949B
:1019A000510CBE016F5F7F4FCE0108960E943A0A2C
:1019B0008F818E87CE0101960E94730ACE014596D3
:1019C0000E94730ACE010F960E94730A1E85BE0103
:1019D000685F7F4FCE0101960E945E0B612FCE01A2
:1019E00001960E94B900CE0101960E94730A64E03C
:1019F000CE0101960E94780B64E671E0CE0101965B
:101A00000E94250A082FCE0101960E94730A11E058
:101A1000011101C010E0CE0108960E94730A812FC7
:101A20006A960FB6F894DEBF0FBECDBFDF91CF919F
:101A30001F910F9108951F920F920FB60F921124CC
:101A40002F933F938F939F93AF93BF938091F50113
:101A50009091F601A091F701B091F8013091F40155
:101A600023E0230F2D3758F50196A11DB11D2093BA
:101A7000F4018093F5019093F601A093F701B093E0
:101A8000F8018091F9019091FA01A091FB01B091C8
:101A9000FC010196A11DB11D8093F9019093FA01FB
:101AA000A093FB01B093FC01BF91AF919F918F91E7
:101AB0003F912F910F900FBE0F901F90189526E821
:101AC000230F0296A11DB11DD2CF1F920F920FB608
:101AD0000F9211242F933F934F935F936F937F93B4
:101AE0008F939F93AF93BF93EF93FF93E091000287
:101AF000F0910102309749F0A685B7858585968DCE
:101B000091FF14C09C918923A1F4FF91EF91BF91A3
:101B1000AF919F918F917F916F915F914F913F9185
:101B20002F910F900FBE0F901F9018959C918923B5
:101B300061F7A389B4899C918589809589238C93C9
:101B4000868997890197F1F7608D718DA685B78594
:101B5000558538E020E0CB010197F1F7822F90E026
:101B600095958795282F4C91452309F02068315091
:101B700091F7868D81FD20958091FF0190E001967F
:101B80008F7399273091FE01381799F0A091FF01CA
:101B9000B0E0AC54BE4F2C938093FF01828D938DA7
:101BA0000197F1F7A389B4898C919589892B8C933E
:101BB000ACCF868D8160868FF1CFCF92DF92EF928E
:101BC000FF920F931F93E82FF92F05C001501109C1
:101BD0002109310961F1908196239417B9F305C069
:101BE000015011092109310911F1908196239413B3
:101BF000F7CFC12CD12CE12CF12C0AC08FEFC81AE1
:101C0000D80AE80AF80A0C151D052E053F0579F0DB
:101C100080818623841791F36C2D7D2D8E2D9F2D31
:101C20001F910F91FF90EF90DF90CF90089560E0AB
:101C300070E080E090E01F910F91FF90EF90DF90B7
:101C4000CF9008958FEF80936705109269051092E9
:101C5000680510927305109272058FEF9FEFDC01FB
:101C600080936E0590936F05A0937005B0937105F6
:101C7000109282051092810588EE93E0A0E0B0E01A
:101C80008093830590938405A0938505B093860582
:101C90008EE391E09093800580937F0510929605E6
:101CA00010929505109298051092970510929A053A
:101CB0001092990510929C0510929B0560919D05CC
:101CC0006E7F6D7F60939D056695617081E06827EA
:101CD00083E00E949A0161E083E00E94E601E1EB6B
:101CE000F0E0E491E0938F05EDE9F0E0E491F0E0BD
:101CF000EE0FFF1FE057FF4F859194919093910550
:101D00008093900560E082E00E94E60180919D054D
:101D100081FD04C061E082E00E949A0182E080932C
:101D20008B05E0EBF0E0E491E0938C05ECE9F0E06A
:101D3000E491F0E0EE0FFF1FEA57FF4F8591949179
:101D400090938E0580938D05109275051092740501
:101D500068E671E088E795E00C94670BCF93DF931A
:101D6000CDB7DEB7A2970FB6F894DEBF0FBECDBFDA
:101D7000789484B5826084BD84B5816084BD85B566
:101D8000826085BD85B5816085BD80916E00816072
:101D900080936E0010928100809181008260809318
:101DA000810080918100816080938100809180001A
:101DB0008160809380008091B10084608093B10045
:101DC0008091B00081608093B00080917A0084603F
:101DD00080937A0080917A00826080937A0080916B
:101DE0007A00816080937A0080917A008068809385
:101DF0007A001092C10010929A05109299051092E3
:101E0000980510929705109296051092950582E418
:101E100090E090939C0580939B0590918B05963163
:101E200008F047C02FE030E03093960520939505E9
:101E300020E430E0309398052093970527E230E0C6
:101E400030939A05209399052091680084E098309A
:101E500048F031E09E3008F430E081E001C0880FA6
:101E60003A95EAF7822B809368002DE630E09830AF
:101E700050F02BE630E09E3030F02CE630E096312A
:101E800010F030E020E03093930520939205292F45
:101E900030E0983008F09FC081E001C0880F9A952B
:101EA000EAF78093940580919B0590919C0501979A
:101EB000F1F78091990590919A05892B49F1E0916C
:101EC0000002F091010225E0EF37F20709F13097A7
:101ED00039F0A389B4899C918589809589238C9355
:101EE00080919D058E7F80939D051092FF01109239
:101EF000FE018FE795E09093010280930002E0914C
:101F00009205F0919305808190919405892B8083AF
:101F10000FE715E0CE010A960E944D0C109375054F
:101F20000093740565E571E0CE0147960E94670B4A
:101F300065E571E0CE0141960E94670BAE01495EF6
:101F40005F4FBE016F5E7F4FCE0101960E94510C24
:101F5000BE016F5F7F4FCE010A960E943A0A8F81C1
:101F6000888BCE0101960E94730ACE0141960E9491
:101F7000730ACE0147960E94730AF888BE01665F15
:101F80007F4FCE0101960E945E0B6F2DCE01019610
:101F90000E94B900CE0101960E94730A64E0CE014E
:101FA00001960E94780B64E671E0CE0101960E94D2
:101FB000250AF82ECE0101960E94730ACE010A96D8
:101FC0000E94730AF11014C068EE73E080E090E0A4
:101FD0000E943C029FCF9E3040F42850310981E09E
:101FE00001C0880F2A95EAF75CCF2E503109F7CF50
:101FF000CE010A960E944D0C68E671E0CE014D9626
:102000000E94670B69E671E0CE014D960E94070BB6
:10201000BE01635E7F4FCE0147960E945E0B6DE668
:1020200071E0CE0141960E94670BAE01495E5F4FA1
:10203000BE016F5E7F4FCE0101960E94510CBE0122
:102040006F5F7F4FCE010A960E943A0A8F81888B7C
:10205000CE0101960E94730ACE0141960E94730A36
:10206000CE0147960E94730A1889BE01665F7F4FB2
:10207000CE0101960E945E0B612FCE0101960E9457
:10208000B900CE0101960E94730A64E0CE01019668
:102090000E94780BCE0101960E94730ACE014D96E4
:1020A0000E94730ACE010A960E94730ACE010A9614
:1020B0000E944D0C61E070E0CE0147960E94110B2A
:1020C00064E771E0CE0141960E94670BAE01495E64
:1020D0005F4FBE016F5E7F4FCE0101960E94510C93
:1020E000BE016F5F7F4FCE010A960E943A0A8F8130
:1020F000888BCE0101960E94730ACE0141960E9400
:10210000730ACE0147960E94730A81E090E0909393
:102110007705809376051889BE01665F7F4FCE01F3
:1021200001960E945E0B612FCE0101960E94B900BC
:10213000CE0101960E94730A10927E0564E0CE01E2
:1021400001960E94780B64E671E0CE0101960E9430
:10215000250A182FCE0101960E94730A112331F02F
:102160006CED75E080E090E00E943C02CE010A96A2
:102170000E94730A8091760590917705019709F086
:102180004DC0CE010A960E944D0C63E070E0CE0176
:1021900041960E94110B6DE771E0CE0147960E94B7
:1021A000670BAE014F5E5F4FBE01695E7F4FCE0190
:1021B00001960E94510CBE016F5F7F4FCE010A96BF
:1021C0000E943A0A8F81888BCE0101960E94730A81
:1021D000CE0147960E94730ACE0141960E94730A6F
:1021E0001889BE01665F7F4FCE0101960E945E0B8B
:1021F000612FCE0101960E94B900CE0101960E9486
:10220000730A64E0CE0101960E94780BCE0101961C
:102210000E94730ACE010A960E94730ACE010A96A2
:102220000E944D0C188E1F8A1A8E198E1C8E1B8EC2
:102230004AE0BE016F5F7F4F84E190E00E94161478
:10224000BE016F5F7F4FCE0147960E94070B66E885
:1022500071E0CE0141960E94670BAE01495E5F4F6F
:10226000BE016F5E7F4FCE0101960E94510CBE01F0
:102270006F5F7F4FCE010A960E943A0A8F81888B4A
:10228000CE0101960E94730ACE0141960E94730A04
:10229000CE0147960E94730A1889BE01665F7F4F80
:1022A000CE0101960E945E0B612FCE0101960E9425
:1022B000B900CE0101960E94730A64E0CE01019636
:1022C0000E94780BCE0101960E94730ACE010A96F5
:1022D0000E94730A80911302811111C082E092E082
:1022E0000E94D30910921202109211028AE191E029
:1022F000909303028093020281E08093130282E0B4
:1023000092E00E94CD0684E095E0909305028093D0
:1023100004028DE190E09093100280930F0280916F
:102320006A0590916B05A0916C05B0916D05843C98
:10233000E9E09E07A105B10520F484EC99E0A0E056
:10234000B0E080936A0590936B05A0936C05B09301
:102350006D0580912C02811111C08BE192E00E94E9
:10236000D30910922B0210922A028CE291E09093F2
:102370001C0280931B0281E080932C028BE192E08F
:102380000E94220984E392E090931E0280931D0232
:1023900080EF90E0909329028093280280916A0553
:1023A00090916B05A0916C05B0916D05843CF9E0AE
:1023B0009F07A105B10520F484EC99E0A0E0B0E00E
:1023C00080936A0590936B05A0936C05B0936D059F
:1023D00061E086E00E94E60160E087E00E94E6019D
:1023E00061E086E00E94E60160E086E00E949A01DA
:1023F00083E090E00197F1F761E086E00E949A01A6
:1024000083E290E00197F1F760E086E00E949A0194
:10241000198210E81A831B82AE014F5F5F4F6DE196
:1024200070E084E095E00E948D0019821A831B827F
:10243000AE014F5F5F4F60EF70E084E392E00E9477
:102440008D000E947A0268EE73E080E090E00E94C6
:102450003C0219821A821B82AE014F5F5F4F6DE111
:1024600070E084E095E00E948D0019821A821B8240
:10247000AE014F5F5F4F60EF70E084E392E00E9437
:102480008D000E947A0268EE73E080E090E00E9486
:102490003C026AE871E0CE0101960E94670BCE0112
:1024A00001960E94A20CCE0101960E94730A60E080
:1024B00087E00E94E6010E94000A19821A821B82AC
:1024C000AE014F5F5F4F6DE170E084E095E00E94E8
:1024D0008D008FEF89831A821B82AE014F5F5F4FA1
:1024E00060EF70E084E392E00E948D000E947A0227
:1024F00083E0882E912C93E2C92ED12C24E9422E20
:10250000512C612C712C22242A9430E0A32E30E02F
:10251000B32E33243A9461E086E00E94E60160E045
:1025200086E00E949A01C4010197F1F761E086E01C
:102530000E949A01C6010197F1F760E086E00E94CF
:102540009A0160E087E00E94E6010E94000AA30170
:1025500092010E94D714233031054105510509F03D
:1025600033C139821A821B82AE014F5F5F4F6DE12A
:1025700070E084E095E00E948D0019821A821B822F
:10258000AE014F5F5F4F60EF70E084E392E00E9426
:102590008D000E947A02809176059091770510E077
:1025A00000E0019709F05EC0CE010A960E944D0C32
:1025B0006AE971E0CE0141960E94670B6CE971E017
:1025C000CE0147960E94670BAE014F5E5F4FBE0182
:1025D000695E7F4FCE0101960E94510CBE016F5F74
:1025E0007F4FCE010A960E943A0A8F81888BCE01D6
:1025F00001960E94730ACE0147960E94730ACE018B
:1026000041960E94730A1889BE01665F7F4FCE0112
:1026100001960E945E0B612FCE0101960E94B900C7
:10262000CE0101960E94730A66E0CE0141960E9497
:10263000780BBE016F5E7F4FCE0101960E945E0B4C
:10264000CE0101960E941F01082F10E0CE010196D5
:102650000E94730ACE0141960E94730ACE010A9627
:102660000E94730A8091760590917705F12CE12CF8
:10267000019709F05EC0CE010A960E944D0C6EEAE9
:1026800071E0CE0141960E94670B6CE971E0CE01CA
:1026900047960E94670BAE014F5E5F4FBE01695EB9
:1026A0007F4FCE0101960E94510CBE016F5F7F4F9C
:1026B000CE010A960E943A0A8F81888BCE0101963C
:1026C0000E94730ACE0147960E94730ACE0141967A
:1026D0000E94730AF888BE01665F7F4FCE010196A3
:1026E0000E945E0B6F2DCE0101960E94B900CE01B3
:1026F00001960E94730A66E0CE0141960E94780B13
:10270000BE016F5E7F4FCE0101960E945E0BCE012F
:1027100001960E941F01E82EF12CCE0101960E9425
:10272000730ACE0141960E94730ACE010A960E9456
:10273000730A0E191F090230110570F462EA71E084
:10274000CE0101960E94670BCE0101960E94A20C59
:10275000CE0101960E94730A04E312E0F801208280
:10276000118212820E947A02F80110821182128272
:102770006AE070E080E090E00E943C020D5F1F4F35
:10278000F5E004301F0751F764EF71E080E090E05E
:102790000E943C0219821A821B82AE014F5F5F4F7A
:1027A0006DE170E084E095E00E948D0039821A822C
:1027B0001B82AE014F5F5F4F60EF70E084E392E0F9
:1027C0000E948D000E947A02A114B10409F4A3CEE4
:1027D0000E940000A0CE88E795E00E94730A8EE375
:1027E00091E09093800580937F0580910002909105
:1027F00001028F57954071F4E0919205F091930595
:1028000090818091940580958923808310920102A4
:10281000109200020895BB274A3031F4992322F424
:10282000BDE2909581959F4F0C941714BB27FB0137
:102830005527AA27880F991FAA1FA41710F0A41BB9
:1028400083955051B9F7A05DAA3308F0A95DA19313
:10285000009779F7B111B1931192CB010C94301418
:10286000DC01FC01672F71917723E1F7329704C0F7
:102870007C916D9370836291AE17BF07C8F3089582
:102880000E948214A59F900DB49F900DA49F800D6F
:10289000911D112408952F923F924F925F926F9253
:1028A0007F928F929F92AF92BF92CF92DF92EF92E0
:1028B000FF920F931F93CF93DF93CDB7DEB7CA1B61
:1028C000DB0B0FB6F894DEBF0FBECDBF09942A888C
:1028D000398848885F846E847D848C849B84AA8434
:1028E000B984C884DF80EE80FD800C811B81AA81C1
:1028F000B981CE0FD11D0FB6F894DEBF0FBECDBF8C
:10290000ED010895A29FB001B39FC001A39F700D78
:10291000811D1124911DB29F700D811D1124911DE7
:102920000895DB018F939F930E944014BF91AF9154
:10293000A29F800D911DA39F900DB29F900D112419
:10294000089597FB072E16F4009407D077FD09D061
:102950000E94061507FC05D03EF4909581959F4F87
:102960000895709561957F4F0895A1E21A2EAA1BD4
:10297000BB1BFD010DC0AA1FBB1FEE1FFF1FA2172F
:10298000B307E407F50720F0A21BB30BE40BF50B2C
:10299000661F771F881F991F1A9469F760957095B5
:1029A000809590959B01AC01BD01CF010895052E46
:1029B00097FB1EF400940E94EE1457FD07D00E946E
:1029C000B51407FC03D04EF40C94EE1450954095CA
:1029D000309521953F4F4F4F5F4F089590958095CB
:1029E000709561957F4F8F4F9F4F08950E9482147D
:1029F000B7FF0895821B930B08952A193B094C09D0
:102A00005D096E097F09800B910B0895AA1BBB1B02
:102A100051E107C0AA1FBB1FA617B70710F0A61BDE
:102A2000B70B881F991F5A95A9F780959095BC01FF
:102A3000CD010895EE0FFF1F0590F491E02D09944C
:102A40000F931F93CF93DF938230910510F482E0B0
:102A500090E0E091A005F091A10530E020E0B0E029
:102A6000A0E0309799F42115310509F44AC0281BDC
:102A7000390B24303105D8F58A819B8161157105A8
:102A800089F1FB0193838283FE0111C04081518152
:102A90000281138148175907E0F04817590799F444
:102AA000109761F012960C93129713961C9332961E
:102AB000CF01DF91CF911F910F9108950093A00551
:102AC0001093A105F4CF2115310551F0421753079A
:102AD00038F0A901DB019A01BD01DF01F801C1CF86
:102AE000EF01F9CF9093A1058093A005CDCFFE0112
:102AF000E20FF31F81939193225031093983288388
:102B0000D7CF20919E0530919F05232B41F4209132
:102B100002013091030130939F0520939E0520917F
:102B20000001309101012115310541F42DB73EB767
:102B30004091040150910501241B350BE0919E0545
:102B4000F0919F05E217F307A0F42E1B3F0B281707
:102B5000390778F0AC014E5F5F4F2417350748F016
:102B60004E0F5F1F50939F0540939E058193919355
:102B70009FCFF0E0E0E09CCFCF93DF930097E9F0A8
:102B8000FC01329713821282A091A005B091A10599
:102B9000ED0130E020E01097A1F420813181820F17
:102BA000931F20919E0530919F052817390709F042
:102BB00061C0F0939F05E0939E05DF91CF9108954A
:102BC000EA01CE17DF07E8F54A815B819E014115D6
:102BD0005105B1F7E901FB83EA8349915991C40F8B
:102BE000D51FEC17FD0761F4808191810296840F57
:102BF000951FE90199838883828193819B838A83CE
:102C0000F0E0E0E012968D919C9113970097B9F552
:102C10002D913C911197CD010296820F931F209127
:102C20009E0530919F052817390739F6309751F5E1
:102C30001092A1051092A005B0939F05A0939E0548
:102C4000BCCFD383C28340815181840F951FC817A5
:102C5000D90761F44E5F5F4F88819981480F591FF2
:102C6000518340838A819B8193838283211531051F
:102C700009F0B0CFF093A105E093A0059ECFFD0130
:102C8000DC01C0CF13821282D7CFB0E0A0E0EBE42A
:102C9000F6E10C944D148C01009751F4CB010E9485
:102CA00020158C01C801CDB7DEB7E0E10C946914A2
:102CB000FC01E60FF71F9C0122503109E217F307D0
:102CC00008F49DC0D901CD91DC911197C617D707A3
:102CD00098F0C530D10530F3CE01049786179707D9
:102CE00008F3C61BD70B2297C193D1936D937C93A6
:102CF000CF010E94BC15D6CF5B01AC1ABD0A4C01B6
:102D00008C0E9D1EA091A005B091A105512C412CC7
:102D1000F12CE12C109731F580919E0590919F0543
:102D20008815990509F05CC04616570608F058C08A
:102D30008091000190910101009741F48DB79EB7F9
:102D40004091040150910501841B950BE817F90788
:102D500008F055C0F0939F05E0939E05F90171833B
:102D60006083A0CF8D919C91119712966C901297D1
:102D700013967C901397A815B90559F56C0142E09C
:102D8000C40ED11CCA14DB0420F1AC014A195B0942
:102D9000DA011296159780F0628273825183408324
:102DA000D9016D937C93E114F10471F0D70113966E
:102DB000FC93EE93129776CF22968C0F9D1FF9010C
:102DC00091838083F301EFCFF093A105E093A005F9
:102DD00069CF4816590608F42C017D01D3019ACF1A
:102DE000CB010E9420157C01009749F0AE01B8018B
:102DF0000E940717C8010E94BC15870153CF10E03D
:102E000000E050CF81E090E0F8940C942017FB0193
:102E1000DC0102C001900D9241505040D8F7089556
:102E2000FB01DC018D91019080190110D9F3990B00
:102E30000895FB01DC0101900D920020E1F7089557
:102E400010E0C2E6D0E004C0FE010E941A152196EF
:0A2E5000C336D107C9F7F894FFCF8D
:102E5A000000A205800000000000230A230A230ABA
:102E6A00B209AE09AB090000000068092409CD06C1
:102E7A00B209AE09A4007A04000000006809240916
:102E8A002209B209AE09A400CF0600000000A5037A
:102E9A006D013A04A403010419048C036572726F6C
:102EAA00720041540020002B003D00504C4159460D
:102EBA00494C45004F4B0D0A004F46460050524FB1
:102ECA004D50540046554E4354494F4E00504C41C4
:102EDA00594D4F444500564F4C002F66782F737456
:102EEA0061727475702E6D703300340051554552FD
:102EFA0059002F66782F73636F72652E6D703300D9
:00000001FF
